:020000040800F2
:10000000C0060020B5010008B5100008AD100008BA
:10001000B110000871020008C910000800000000BB
:10002000000000000000000000000000BD100008FB
:100030007502000800000000B9100008C110000897
:10004000CF010008CF010008CF010008CF01000850
:10005000CF010008CF010008CF010008CF01000840
:10006000CF010008CF010008CF010008CF01000830
:10007000CF010008CF010008CF010008CF01000820
:10008000CF010008CF010008CF010008CF01000810
:10009000CF010008CF010008CF010008CF01000800
:1000A000CF010008CF010008CF010008CF010008F0
:1000B000CF010008CF010008CF010008CF010008E0
:1000C000CF010008CF010008CF010008CF010008D0
:1000D000CF010008CF010008CF010008CF010008C0
:1000E000CF010008CF010008CF01000800F002F89E
:1000F00000F050F814A696E8000CB244B344DA4578
:1001000001D100F047F8BAE80F000FA696E83000DA
:10011000A5EB040504EB0607AAEB0704A7F101070A
:100120004FEA15154FEA3414A4F10104AC4201D38F
:1001300000F030F813F0010F18BFFB1A43F0010371
:1001400000F001F8DBE71847E81000000811000094
:10015000103A24BF78C878C1FAD8520724BF30C8F3
:1001600030C144BF04680C60704700007047000055
:100170000023002400250026103A28BF78C1FBD8B0
:10018000520728BF30C148BF0B6070471FB51FBD65
:1001900010B510BD00F031F81146FFF7F7FF00F081
:1001A00095FF00F04FF803B4FFF7F2FF03BC00F037
:1001B00057F800000948804709480047FEE7FEE776
:1001C000FEE7FEE7FEE7FEE7FEE7FEE7FEE7FEE707
:1001D00004480549054A064B70470000C510000851
:1001E000ED000008C0000020C0060020C002002072
:1001F000C0020020704770477047754600F02CF829
:10020000AE4605006946534620F00700854618B003
:1002100020B5FFF7DDFFBDE820404FF000064FF0AE
:1002200000074FF000084FF0000BAC46ACE8C009E7
:10023000ACE8C009ACE8C009ACE8C00921F007018E
:100240008D46704710B50446AFF300802046BDE8E8
:100250001040FFF7A8BF00000048704710000020C2
:1002600001491820ABBEFEE72600020070470000DF
:10027000FEE7000070470000B0B5044600F018F932
:10028000054640F20000C2F200000078611C18BF71
:10029000044400BF00F00CF9401BA042FAD3B0BDEB
:1002A0002DE9F04F82B00E68002E00F0FD8041F283
:1002B0000042C4F20102042340F2004E904208BF03
:1002C00003234FF6FF7CC4F2010E009300240123A8
:1002D000C1F2100C4FF0000A4FF0000944E000BFDB
:1002E000012704F00C030F229A402BEA020207FABE
:1002F00003F34FEA9A051A4346F825204E6840F268
:100300000C45F202DEF8082054BF22EA080242EA55
:100310000802C4F20105CEF808202A68B30254BFCF
:1003200022EA080242EA08022A60B303DEF8042047
:1003300054BF22EA080242EA0802F303CEF804207E
:10034000DEF800204FF0010354BF22EA080242EA1F
:100350000802CEF800200E680AF1010A36FA0AF205
:1003600004F1040400F0A08003FA0AFB16EA0B086B
:10037000F1D04E68664511DC122E55D8DFE806F044
:10038000340A4448545454545454545454545454B3
:10039000544C5000D1F80C9046E000BF4FF6FF726D
:1003A000C1F2210296420FDC0022C1F211029642F4
:1003B0001AD00022C1F21202964215D00022C1F2D8
:1003C0002102964210D02FE00022C1F22202964272
:1003D0000AD00022C1F23102964205D00022C1F2B9
:1003E0003202964220D100BF8A684AB1012A14BF66
:1003F000C0F814B0C0F810B04FF0080914E000BF06
:100400004FF0040910E000BFCA6802F108090BE0D0
:100410004FF0000908E000BFCA6802F1040903E0D8
:10042000CA6802F10C0900BF22460646B8F5807F73
:1004300024BF203A043637680F25954027EA050582
:1004400009FA02F22A433260CA79D2067FF583AFF5
:1004500041F21803C4F202031A68AEF57E7642F048
:1004600001021A601A6802F001020192019A2AF050
:10047000030256F802B040F60002C4F201029042B4
:1004800010D040F60042C4F2010290423FF428AF7F
:1004900041F20002C4F20102009F904208BF02270D
:1004A0001FE700BF00271CE702B0BDE8F08F000087
:1004B00040F2B800C2F200000068704740F200004D
:1004C00040F2B801C2F20000C2F2000100780A68EE
:1004D000104408607047000080B542F20000C4F28A
:1004E0000200016841F010010160032000F072F881
:1004F0000F2000F005F800F027F8002080BD000074
:1005000070B540F20006C2F2000640F208013278EF
:10051000C2F200014FF47A730968B3FBF2F20446A9
:10052000B1FBF2F1084600F047FB0F2C4FF001053C
:1005300008D838B94FF0FF3021460022002500F0DE
:100540001DF87460284670BD82B041F21800C4F2F4
:100550000200016841F001010160016801F0010140
:1005600001910199416841F080514160406800F07B
:1005700080500090009802B07047000010B54EF611
:100580000C5CCEF2000CDCF80030C3F3022E8EF0CF
:100590000704042C28BF0424BEF103034FF0FF3EE0
:1005A0000EFA04F438BF0023A14399400EFA03F376
:1005B0009A43114300F00F0200F160430901043A2D
:1005C00003F564436244002848BF02F10C0319702C
:1005D00010BD00004EF60C51CEF200010A684FF635
:1005E000FF031A4060F30A2242F0806040F0FD7081
:1005F00008607047002804BF012070472DE9F043D0
:1006000081B042F20008C4F202080446D8F80000A3
:100610000D4600F0070088420CD2D8F8000020F008
:1006200007002843C8F80000D8F8000000F00700D1
:10063000A8426CD1206841F204098107C4F2020982
:1006400017D5410705D5D9F8001041F4E061C9F884
:100650000010010705D5D9F8001041F46051C9F820
:100660000010D9F80010A26821F0F0011143C9F878
:100670000010C00742D1D8F8000000F00700A842DF
:100680000CD9D8F8000020F007002843C8F8000073
:10069000D8F8000000F00700A84238D120684107D0
:1006A00007D5D9F80010E26821F4E0611143C9F8D8
:1006B0000010000708D5D9F80000216920F4605027
:1006C00040EAC100C9F80000D9F8002002F00C008F
:1006D000082841F20020C0F27A0051D141F22023D3
:1006E000C2F38341C0F60003595CD2033CD440F608
:1006F0000010C0F23D00484342E000BF606802289D
:100700000AD001282AD159F8041C890308D40120F1
:1007100001B0BDE8F08300BF59F8041C8901F6D58B
:10072000D9F8001021F003010843C9F80000FFF7D1
:10073000BFFE064641F28837D9F80000616800F034
:100740000C00B0EB810F96D0FFF7B2FE801BB842D1
:10075000F2D9032001B0BDE8F08300BF59F8041CB2
:100760008907D4D5DCE700BFD9F8002041F21E2369
:10077000C2F34042C0F600039A5C4843B0FBF2F07B
:10078000D9F8001041F20E22C1F30311C0F60002A5
:10079000515C40F2080220FA01F140F20400C2F27A
:1007A00000000068C2F200021160FFF7A9FE0020FD
:1007B00001B0BDE8F0830000002804BF01207047AD
:1007C0002DE9F04182B00446007841F20006C007EE
:1007D000C4F202060CD0706800F00C00042840F04F
:1007E00081803068800303D56068002800F04E8166
:1007F000207880071BD5706810F00C0F09D0706846
:1008000000F00C00082840F08B807068C00300F1F5
:1008100087803068800703D52069012840F0368141
:100820003068616920F0F80040EAC100306020784B
:10083000000713D4207840072CD4E569002D00F080
:100840002081706800F00C00082840F0AF80012D76
:1008500040F00C81012002B0BDE8F081A0690028C1
:1008600000F08C800020C4F242200121C0F88014E6
:10087000FFF71EFE054600BF706A800700F1BA80D0
:10088000FFF716FE401B0228F6D9032002B0BDE890
:10089000F08100BFF0695FEAC00808D4F06940F059
:1008A0008050F061F06900F080500090009847F2AD
:1008B0000007C4F200073868C0054DD4386840F41A
:1008C00080703860FFF7F4FD054600BF3868C0054A
:1008D00042D4FFF7EDFD401B6428F7D9032002B096
:1008E000BDE8F081706800F00C00082803D1706842
:1008F000C0033FF576AF6068002800F00981B0F5CD
:10090000A02F00F01D81B0F5803F00F01D81306800
:1009100020F480303060306820F4802017E100BF80
:100920002069002840F20000C4F2422000F08C80D0
:1009300001210160FFF7BCFD054600BF306880075C
:100940003FF56EAFFFF7B4FD401B0228F6D9032038
:1009500002B0BDE8F08100BFE068002800F09A8096
:10096000052800F0B180012800F0B280306A20F044
:1009700001003062306A20F00400ACE00020C4F2D4
:1009800042200021C0F88014FFF792FD054600BF09
:10099000706A80077FF54EAFFFF78AFD401B022883
:1009A000F6D9032002B0BDE8F08100BF0027C4F2F1
:1009B000422700203866FFF77BFD022D05460DD14A
:1009C0003068800140F1D680FFF772FD401B02289D
:1009D0004FF00300F4D902B0BDE8F0813068800127
:1009E0004FD5FFF765FD401B02284FF00300F5D9F6
:1009F000F1E700BF40F20800C2F20000006844F6D0
:100A0000D351C1F26201A0FB0101480A019000BF6D
:100A100000BF0198411E002801913FF40BAF00BFB9
:100A20000198411E002801913FF404AF00BF0198D6
:100A3000411E002801913FF4FDAE00BF0198411E08
:100A400000280191E4D1F5E600210160FFF730FDB7
:100A5000054600BF306880077FF5E9AEFFF728FD47
:100A6000401B02284FF00300F4D9B4E77068216AF4
:100A700000F480328A4209D1616A00F47010884221
:100A800004D1002002B0BDE8F08100BF012002B017
:100A9000BDE8F081306A20F001003062306A20F059
:100AA00004003062FFF704FD054641F2883700BFBD
:100AB000306A800722D5FFF7FBFC401BB8424FF09D
:100AC0000300F5D987E700BF306A40F004003062C8
:100AD000306A40F001003062FFF7EAFC054641F25F
:100AE000883700BF306A800708D4FFF7E1FC401B5D
:100AF000B842F7D9032002B0BDE8F081B8F1000F89
:100B00003FF59BAEF06920F08050F06195E600BFA4
:100B1000306820F480303060306820F4802030600D
:100B2000FFF7C6FC054600BF306880037FF560AE66
:100B3000FFF7BEFC401B64284FF00300F4D94AE7DE
:100B4000306840F480203060306840F4803030609D
:100B5000FFF7AEFC054600BF306880033FF548AEA6
:100B6000FFF7A6FC401B6428F6D9032002B0BDE8BD
:100B7000F08100BF206AB0F5803F05D17168A2689E
:100B800021F40031114371607168626A21F47411BB
:100B900011430843706001203866FFF789FC044662
:100BA000306880013FF56DAFFFF782FC001B022823
:100BB0004FF00300F4D90EE7411E0020B0EB116F97
:100BC0001CBF012070474EF21002CEF200025160AD
:100BD0004EF62351CEF20001F0230B7007219060F6
:100BE0001160704790F83C20012A4FF0020236D085
:100BF00010B580F83D200268D2F804E0D2F808C0B1
:100C00000C682EF07003234340F2FF74C4F200041A
:100C1000A24253600ADCB2F1804F13D040F200438D
:100C2000C4F200039A420DD011E000BF42F6004327
:100C3000C4F201039A4205D040F60003C4F2000357
:100C40009A4204D149682CF0800319439160012134
:100C5000002280F83D1080F83C20BDE8104010468E
:100C60007047000080B586B040F600010068C4F20D
:100C7000000100228842049202D006B080BD00BF6D
:100C800041F21800C4F20200026842F00802026059
:100C9000006800F00800019001984FF40070029085
:100CA00002200390059001F5823002A9FFF7F8FABF
:100CB00006B080BD90F83C30012B04BF0220704785
:100CC0004FEAB202032A3DD82DE9F043DFE802F0F3
:100CD00002407CB6036842F600461D6A1A6AC4F2F6
:100CE000010622F001021A621A465C6852F818CF17
:100CF000B3428E68D1F800E025F0020545EA06050A
:100D00000CD1CE68D1E9057824F4407425F00C05A7
:100D100026F004063C43354344EA08042CF07307EC
:100D200047EA0E075C609F614F6809695F631D6257
:100D30009F6947F008079F619F6927F004079F613B
:100D4000ACE000BF0121002280F83C20084670473B
:100D5000036842F600461D6A1A6AC4F2010622F0D0
:100D600010021A621A46D3F804C052F8184FB34260
:100D70008E68D1F800E025F0200545EA06150FD170
:100D8000CE68D1E905986FF0400725F0C00507EA65
:100D9000061635432CF4406748EA090647EA860CF4
:100DA00024F4E64444EA0E27C3F804C09F614F6868
:100DB00009699F631D629F6947F400679F619F698E
:100DC00027F480679F6168E0036842F600461D6A69
:100DD0001A6AC4F2010622F480721A621A46D3F823
:100DE00004C052F81CEFB3428E680C6825F40075FD
:100DF00045EA06250FD1CE68D1E90598360240F2C2
:100E0000FF4725F44065BE4335432CF4405748EA7C
:100E1000090647EA061C2EF073072743C3F804C0EF
:100E2000DF614F680969DF631D62DF6947F008070A
:100E3000DF61DF6927F00407DF612FE0036842F616
:100E40000047D3F820C01A6AC4F2010722F4805286
:100E50001A621A465C6852F81C5FD1F800E08E688E
:100E6000BB4204D14F6924F4804444EA87142CF433
:100E7000005747EA063725F4E64646EA0E265C6048
:100E8000DE614E6809691E641F62DF6947F400670E
:100E9000DF61DF6927F48067DF61090213681943A6
:100EA00011600021BDE8F043002280F83C20084694
:100EB00070470000002804BF0120704710B50446A9
:100EC00090F83D0028B9002084F83C00204600F04E
:100ED00067F8022084F83D00206840F2FF73026842
:100EE000C4F2000342F6004C9842C4F2010C15DC37
:100EF000B0F1804F1AD040F20041C4F200018842A4
:100F000014D0984218DCB0F1804F1DD040F200415F
:100F1000C4F20001884217D01AE000BF604505D036
:100F200040F60001C4F200018842EAD1A16822F033
:100F300070020A439842E6DD604505D040F60001A4
:100F4000C4F20001884203D1216922F440720A43AD
:100F5000A36922F08001D4F804E0E26819436045F7
:100F60000160C262C0F828E002D16169CCF830109B
:100F700001214161002084F8461084F83E1084F875
:100F80003F1084F8401084F8411084F8421084F82F
:100F9000431084F8441084F8451084F83D1010BDC7
:100FA000006840F60001C4F20001884218BF704793
:100FB00081B041F21C00C4F20200016841F004015A
:100FC0000160006800F004000090009801B07047D4
:100FD00041B1082910D0042914BF00F1410200F1E9
:100FE0003F020BE090F83E20012A1CBF0120704711
:100FF000022280F83E2013E000F140021278012A1C
:101000001CBF012070470222082907D0042914BF01
:1010100080F8412080F83F2002E000BF80F84020A7
:10102000006801F01F010122036A8A4023EA0201DD
:101030000162036A42F64441C4F201011A43A1F17C
:101040004403984202620FD040F2FF71C4F20001E3
:10105000884213DCB0F1804F1CD040F20041C4F252
:101060000001884216D01AE00A6842F400420A6081
:1010700040F2FF71C4F200018842EBDD42F600410C
:10108000C4F20101884205D040F60001C4F200011B
:10109000884204D1816801F00701062903D0016864
:1010A00041F001010160002070470000FEE70000F0
:1010B000FEE70000FEE700007047000070470000F8
:1010C000FFF7FCB970470000FEE7000090B0FFF7A3
:1010D00003FA00240120CDE90B44CDE90944069030
:1010E0000A904FF4E0104FF4803102250F9006A8CB
:1010F000CDE90714CDE90D51FFF75EFB20B1EFF309
:10110000108072B6FEE700BF0F20CDE900054FF456
:10111000C060CDE90304684602210294FFF76AFA31
:1011200020B1EFF3108072B6FEE700BF41F2180065
:10113000C4F20200016840F6000541F020010160A0
:101140000168C4F2000501F02001069106990168CA
:10115000132241F0080101600068002100F008003E
:101160000690069840F27000C2F200004FF4FA6355
:10117000CDE90011CDE90B11CDE90911C0E900520B
:10118000C0E9021301618161FFF794FE20B1EFF322
:10119000108072B6FEE700BF40F27000C2F200009D
:1011A0006946FFF71FFD28B1EFF3108072B600BF4C
:1011B000FEE700BF602006900020CDE907000A90FE
:1011C00040F27000C2F2000006A90C22FFF772FD87
:1011D00020B1EFF3108072B6FEE700BF40F270045A
:1011E000C2F200042046FFF73DFD20460C21FFF728
:1011F000EFFE4FF4FA7400BF0A202C64FFF73CF8AE
:101200000134B4F5FA6F08BF4FF4FA74F4E7000044
:1012100000000000000001020304060708090102A3
:1012200002030405060708090A0B0C0D0E0F101027
:1012300050120008000000201000000050010008BB
:101240006012000810000020B006000070010008C5
:1012500001000000100000000024F4000000000065
:04000005080000ED02
:00000001FF
